{
  "contractName": "Identity",
  "abi": [
    {
      "constant": true,
      "inputs": [],
      "name": "owner",
      "outputs": [
        {
          "name": "",
          "type": "address"
        }
      ],
      "payable": false,
      "stateMutability": "view",
      "type": "function"
    },
    {
      "constant": true,
      "inputs": [],
      "name": "totalUsers",
      "outputs": [
        {
          "name": "",
          "type": "uint256"
        }
      ],
      "payable": false,
      "stateMutability": "view",
      "type": "function"
    },
    {
      "constant": true,
      "inputs": [
        {
          "name": "",
          "type": "uint256"
        }
      ],
      "name": "profileArray",
      "outputs": [
        {
          "name": "userAddress",
          "type": "address"
        },
        {
          "name": "firstName",
          "type": "string"
        },
        {
          "name": "lastName",
          "type": "string"
        },
        {
          "name": "password",
          "type": "string"
        },
        {
          "name": "age",
          "type": "uint8"
        },
        {
          "name": "dob",
          "type": "uint32"
        }
      ],
      "payable": false,
      "stateMutability": "view",
      "type": "function"
    },
    {
      "constant": true,
      "inputs": [],
      "name": "currentBalance",
      "outputs": [
        {
          "name": "",
          "type": "uint256"
        }
      ],
      "payable": false,
      "stateMutability": "view",
      "type": "function"
    },
    {
      "inputs": [],
      "payable": true,
      "stateMutability": "payable",
      "type": "constructor"
    },
    {
      "anonymous": false,
      "inputs": [
        {
          "indexed": true,
          "name": "userAddress",
          "type": "address"
        },
        {
          "indexed": false,
          "name": "firstName",
          "type": "string"
        },
        {
          "indexed": false,
          "name": "password",
          "type": "string"
        },
        {
          "indexed": false,
          "name": "lastName",
          "type": "string"
        },
        {
          "indexed": false,
          "name": "age",
          "type": "uint8"
        },
        {
          "indexed": false,
          "name": "dob",
          "type": "uint32"
        }
      ],
      "name": "profileDetailStrings",
      "type": "event"
    },
    {
      "constant": false,
      "inputs": [
        {
          "name": "_userAddress",
          "type": "address"
        },
        {
          "name": "_firstName",
          "type": "string"
        },
        {
          "name": "_password",
          "type": "string"
        },
        {
          "name": "_lastName",
          "type": "string"
        },
        {
          "name": "_age",
          "type": "uint8"
        },
        {
          "name": "_dob",
          "type": "uint32"
        }
      ],
      "name": "createProfile",
      "outputs": [],
      "payable": true,
      "stateMutability": "payable",
      "type": "function"
    }
  ],
  "bytecode": "0x608060405260006003556000600460006101000a81548160ff021916908315150217905550336000806101000a81548173ffffffffffffffffffffffffffffffffffffffff021916908373ffffffffffffffffffffffffffffffffffffffff16021790555034600181905550610aa28061007a6000396000f30060806040526004361061006d576000357c0100000000000000000000000000000000000000000000000000000000900463ffffffff1680638da5cb5b146100725780639b2e4475146100c9578063bff1f9e114610164578063ca0600e71461018f578063ce845d1d14610360575b600080fd5b34801561007e57600080fd5b5061008761038b565b604051808273ffffffffffffffffffffffffffffffffffffffff1673ffffffffffffffffffffffffffffffffffffffff16815260200191505060405180910390f35b610162600480360381019080803573ffffffffffffffffffffffffffffffffffffffff169060200190929190803590602001908201803590602001919091929391929390803590602001908201803590602001919091929391929390803590602001908201803590602001919091929391929390803560ff169060200190929190803563ffffffff1690602001909291905050506103b0565b005b34801561017057600080fd5b5061017961071f565b6040518082815260200191505060405180910390f35b34801561019b57600080fd5b506101ba60048036038101908080359060200190929190505050610725565b604051808773ffffffffffffffffffffffffffffffffffffffff1673ffffffffffffffffffffffffffffffffffffffff1681526020018060200180602001806020018660ff1660ff1681526020018563ffffffff1663ffffffff168152602001848103845289818151815260200191508051906020019080838360005b83811015610252578082015181840152602081019050610237565b50505050905090810190601f16801561027f5780820380516001836020036101000a031916815260200191505b50848103835288818151815260200191508051906020019080838360005b838110156102b857808201518184015260208101905061029d565b50505050905090810190601f1680156102e55780820380516001836020036101000a031916815260200191505b50848103825287818151815260200191508051906020019080838360005b8381101561031e578082015181840152602081019050610303565b50505050905090810190601f16801561034b5780820380516001836020036101000a031916815260200191505b50995050505050505050505060405180910390f35b34801561036c57600080fd5b50610375610975565b6040518082815260200191505060405180910390f35b6000809054906101000a900473ffffffffffffffffffffffffffffffffffffffff1681565b6103b861097b565b600460009054906101000a900460ff161515156103d457600080fd5b6001600460006101000a81548160ff02191690831515021790555033816000019073ffffffffffffffffffffffffffffffffffffffff16908173ffffffffffffffffffffffffffffffffffffffff168152505088888080601f016020809104026020016040519081016040528093929190818152602001838380828437820191505050505050816020018190525084848080601f016020809104026020016040519081016040528093929190818152602001838380828437820191505050505050816040018190525086868080601f016020809104026020016040519081016040528093929190818152602001838380828437820191505050505050816060018190525082816080019060ff16908160ff1681525050818160a0019063ffffffff16908163ffffffff16815250506002819080600181540180825580915050906001820390600052602060002090600502016000909192909190915060008201518160000160006101000a81548173ffffffffffffffffffffffffffffffffffffffff021916908373ffffffffffffffffffffffffffffffffffffffff16021790555060208201518160010190805190602001906105939291906109d1565b5060408201518160020190805190602001906105b09291906109d1565b5060608201518160030190805190602001906105cd9291906109d1565b5060808201518160040160006101000a81548160ff021916908360ff16021790555060a08201518160040160016101000a81548163ffffffff021916908363ffffffff1602179055505050508973ffffffffffffffffffffffffffffffffffffffff167fe1a8a3a7fc0429a8f346c61c25fd379f6fc681e81a67e7e1780b4258909e85638a8a88888c8c8a8a604051808060200180602001806020018660ff1660ff1681526020018563ffffffff1663ffffffff16815260200184810384528c8c82818152602001925080828437820191505084810383528a8a828181526020019250808284378201915050848103825288888281815260200192508082843782019150509b50505050505050505050505060405180910390a260016003600082825401925050819055506000600460006101000a81548160ff02191690831515021790555050505050505050505050565b60035481565b60028181548110151561073457fe5b90600052602060002090600502016000915090508060000160009054906101000a900473ffffffffffffffffffffffffffffffffffffffff1690806001018054600181600116156101000203166002900480601f0160208091040260200160405190810160405280929190818152602001828054600181600116156101000203166002900480156108065780601f106107db57610100808354040283529160200191610806565b820191906000526020600020905b8154815290600101906020018083116107e957829003601f168201915b505050505090806002018054600181600116156101000203166002900480601f0160208091040260200160405190810160405280929190818152602001828054600181600116156101000203166002900480156108a45780601f10610879576101008083540402835291602001916108a4565b820191906000526020600020905b81548152906001019060200180831161088757829003601f168201915b505050505090806003018054600181600116156101000203166002900480601f0160208091040260200160405190810160405280929190818152602001828054600181600116156101000203166002900480156109425780601f1061091757610100808354040283529160200191610942565b820191906000526020600020905b81548152906001019060200180831161092557829003601f168201915b5050505050908060040160009054906101000a900460ff16908060040160019054906101000a900463ffffffff16905086565b60015481565b60c060405190810160405280600073ffffffffffffffffffffffffffffffffffffffff168152602001606081526020016060815260200160608152602001600060ff168152602001600063ffffffff1681525090565b828054600181600116156101000203166002900490600052602060002090601f016020900481019282601f10610a1257805160ff1916838001178555610a40565b82800160010185558215610a40579182015b82811115610a3f578251825591602001919060010190610a24565b5b509050610a4d9190610a51565b5090565b610a7391905b80821115610a6f576000816000905550600101610a57565b5090565b905600a165627a7a72305820d63b17b6af94fdde0f2197e3c068315f5e49ae27e262345c22913641172f6eb30029",
  "source": "pragma solidity ^0.4.23;\r\n\r\ncontract Identity {\r\n\r\n    /*\r\n    *   Storage\r\n    */\r\n    address public owner;\r\n    uint public currentBalance;\r\n    Profile[] public profileArray;\r\n    uint public totalUsers = 0;\r\n    bool private reentrancy_lock = false;\r\n\r\n    // enum AgreementStatus {\r\n    //     Pending,\r\n    //     Closed\r\n    // }\r\n    \r\n    struct Profile {\r\n        address userAddress;\r\n        string firstName;\r\n        string lastName;\r\n        string password;\r\n        uint8 age;\r\n        uint32 dob;\r\n    }\r\n    \r\n    /*\r\n    * Constructor\r\n    */\r\n    constructor()\r\n    public\r\n    payable{\r\n        owner = msg.sender;\r\n        currentBalance = msg.value;\r\n    }\r\n    /*\r\n    *   Events\r\n    */\r\n    event profileDetailStrings(\r\n        address indexed userAddress, string firstName, string password,\r\n        string lastName, uint8 age, uint32 dob\r\n        );\r\n    /*\r\n    * Modifiers\r\n    */\r\n    modifier isOwner(){\r\n        require(msg.sender == owner);\r\n        _;\r\n    }\r\n    \r\n    modifier nonReentrant() {\r\n        require(!reentrancy_lock);\r\n        reentrancy_lock = true;\r\n        _;\r\n        reentrancy_lock = false;\r\n    }\r\n    \r\n    /*\r\n    *   Functions\r\n    */\r\n    \r\n    function createProfile(\r\n        address _userAddress, string _firstName, string _password,\r\n        string _lastName, uint8 _age, uint32 _dob\r\n        ) \r\n     \r\n        external \r\n        nonReentrant\r\n        payable\r\n        {\r\n        \r\n        Profile memory profile;\r\n        profile.userAddress = msg.sender; \r\n        profile.firstName = _firstName; \r\n        profile.lastName = _lastName; \r\n        profile.password = _password;\r\n        profile.age = _age;\r\n        profile.dob = _dob;\r\n        profileArray.push(profile);\r\n        \r\n        emit profileDetailStrings(_userAddress, _firstName, _lastName, _password, _age, _dob);\r\n        \r\n        //think of something better than possible recursion\r\n        totalUsers += 1;\r\n    }   \r\n    \r\n    \r\n    //Redundant.  automatic getter created from struct array.\r\n    // function retrieveProfile(uint32 _profileIndex)\r\n    // view\r\n    // external\r\n    // returns (address, string, string, uint8, uint32){\r\n        \r\n    //     Profile memory profile = profileArray[_profileIndex];\r\n        \r\n    //     return (\r\n    //         profile.userAddress,\r\n    //         profile.firstName,\r\n    //         profile.lastName,\r\n    //         profile.age,\r\n    //         profile.dob\r\n    //         );\r\n    // }\r\n\r\n}\r\n\r\n\r\n\r\n",
  "sourcePath": "C:\\blockchain\\Identity\\contracts\\Identity.sol",
  "compiler": {
    "name": "solc",
    "version": "0.4.24+commit.e67f0147.Emscripten.clang"
  },
  "schemaVersion": "2.0.0",
  "updatedAt": "2018-06-01T03:07:33.625Z"
}